{
    "contractName": "Airline",
    "abi": [
        {
            "inputs": [],
            "stateMutability": "nonpayable",
            "type": "constructor"
        },
        {
            "anonymous": false,
            "inputs": [
                {
                    "indexed": true,
                    "internalType": "address",
                    "name": "customer",
                    "type": "address"
                },
                {
                    "indexed": false,
                    "internalType": "uint256",
                    "name": "price",
                    "type": "uint256"
                }
            ],
            "name": "flightPurchased",
            "type": "event"
        },
        {
            "inputs": [
                {
                    "internalType": "uint256",
                    "name": "flightIndex",
                    "type": "uint256"
                }
            ],
            "name": "buyFlight",
            "outputs": [],
            "stateMutability": "payable",
            "type": "function"
        },
        {
            "inputs": [
                {
                    "internalType": "address",
                    "name": "",
                    "type": "address"
                },
                {
                    "internalType": "uint256",
                    "name": "",
                    "type": "uint256"
                }
            ],
            "name": "customerFlights",
            "outputs": [
                {
                    "internalType": "string",
                    "name": "name",
                    "type": "string"
                },
                {
                    "internalType": "uint256",
                    "name": "price",
                    "type": "uint256"
                }
            ],
            "stateMutability": "view",
            "type": "function"
        },
        {
            "inputs": [
                {
                    "internalType": "address",
                    "name": "",
                    "type": "address"
                }
            ],
            "name": "customerTotalFlights",
            "outputs": [
                {
                    "internalType": "uint256",
                    "name": "",
                    "type": "uint256"
                }
            ],
            "stateMutability": "view",
            "type": "function"
        },
        {
            "inputs": [
                {
                    "internalType": "address",
                    "name": "",
                    "type": "address"
                }
            ],
            "name": "customers",
            "outputs": [
                {
                    "internalType": "uint256",
                    "name": "loyaltyPoints",
                    "type": "uint256"
                },
                {
                    "internalType": "uint256",
                    "name": "totalFlights",
                    "type": "uint256"
                }
            ],
            "stateMutability": "view",
            "type": "function"
        },
        {
            "inputs": [
                {
                    "internalType": "uint256",
                    "name": "",
                    "type": "uint256"
                }
            ],
            "name": "flights",
            "outputs": [
                {
                    "internalType": "string",
                    "name": "name",
                    "type": "string"
                },
                {
                    "internalType": "uint256",
                    "name": "price",
                    "type": "uint256"
                }
            ],
            "stateMutability": "view",
            "type": "function"
        },
        {
            "inputs": [],
            "name": "owner",
            "outputs": [
                {
                    "internalType": "address",
                    "name": "",
                    "type": "address"
                }
            ],
            "stateMutability": "view",
            "type": "function"
        }
    ],
    "bytecode": "608060405234801561001057600080fd5b50600080546001600160a01b0319163317815560408051608081018252600591810191825264546f6b696f60d81b6060820152908152673782dace9d90000060208083019190915260018054808201825593528151805192936002026000805160206108f7833981519152019261008a9284920190610189565b50602091820151600191820155604080516080810182526007918101918252664765726d616e7960c81b6060820152908152670de0b6b3a7640000818401528154808301835560009290925280518051919360029093026000805160206108f7833981519152019261010192849290910190610189565b50602091820151600191820155604080516080810182526006918101918252651358591c9a5960d21b6060820152908152671bc16d674ec80000818401528154808301835560009290925280518051919360029093026000805160206108f7833981519152019261017792849290910190610189565b5060208201518160010155505061025d565b82805461019590610222565b90600052602060002090601f0160209004810192826101b757600085556101fd565b82601f106101d057805160ff19168380011785556101fd565b828001600101855582156101fd579182015b828111156101fd5782518255916020019190600101906101e2565b5061020992915061020d565b5090565b5b80821115610209576000815560010161020e565b600181811c9082168061023657607f821691505b6020821081141561025757634e487b7160e01b600052602260045260246000fd5b50919050565b61068b8061026c6000396000f3fe6080604052600436106100555760003560e01c80630ca97e481461005a57806315ccf70f1461006f578063336989ae146100a657806381959427146100ef5780638da5cb5b1461010f578063f269365a14610147575b600080fd5b61006d610068366004610545565b610182565b005b34801561007b57600080fd5b5061008f61008a366004610545565b610348565b60405161009d92919061055e565b60405180910390f35b3480156100b257600080fd5b506100da6100c13660046104f9565b6002602052600090815260409020805460019091015482565b6040805192835260208301919091520161009d565b3480156100fb57600080fd5b5061008f61010a36600461051b565b610404565b34801561011b57600080fd5b5060005461012f906001600160a01b031681565b6040516001600160a01b03909116815260200161009d565b34801561015357600080fd5b506101746101623660046104f9565b60046020526000908152604090205481565b60405190815260200161009d565b6000600182815481106101975761019761063f565b90600052602060002090600202016040518060400160405290816000820180546101c0906105d3565b80601f01602080910402602001604051908101604052809291908181526020018280546101ec906105d3565b80156102395780601f1061020e57610100808354040283529160200191610239565b820191906000526020600020905b81548152906001019060200180831161021c57829003601f168201915b5050505050815260200160018201548152505090508060200151341461025e57600080fd5b336000908152600260205260408120805490916005918391906102829084906105bb565b90915550506001818101805460009061029c9084906105bb565b90915550503360009081526003602090815260408220805460018101825590835291819020845180518694600202909201926102dd92849290910190610444565b506020918201516001909101553360009081526004909152604081208054916103058361060e565b909155505060208083015160405190815233917f2098c17d3dabc3bc65169e067d07174d0eb2c02c49dbb26b7bf12aff3b7c67ab910160405180910390a2505050565b6001818154811061035857600080fd5b906000526020600020906002020160009150905080600001805461037b906105d3565b80601f01602080910402602001604051908101604052809291908181526020018280546103a7906105d3565b80156103f45780601f106103c9576101008083540402835291602001916103f4565b820191906000526020600020905b8154815290600101906020018083116103d757829003601f168201915b5050505050908060010154905082565b6003602052816000526040600020818154811061042057600080fd5b90600052602060002090600202016000915091505080600001805461037b906105d3565b828054610450906105d3565b90600052602060002090601f01602090048101928261047257600085556104b8565b82601f1061048b57805160ff19168380011785556104b8565b828001600101855582156104b8579182015b828111156104b857825182559160200191906001019061049d565b506104c49291506104c8565b5090565b5b808211156104c457600081556001016104c9565b80356001600160a01b03811681146104f457600080fd5b919050565b60006020828403121561050b57600080fd5b610514826104dd565b9392505050565b6000806040838503121561052e57600080fd5b610537836104dd565b946020939093013593505050565b60006020828403121561055757600080fd5b5035919050565b604081526000835180604084015260005b8181101561058c576020818701810151606086840101520161056f565b8181111561059e576000606083860101525b50602083019390935250601f91909101601f191601606001919050565b600082198211156105ce576105ce610629565b500190565b600181811c908216806105e757607f821691505b6020821081141561060857634e487b7160e01b600052602260045260246000fd5b50919050565b600060001982141561062257610622610629565b5060010190565b634e487b7160e01b600052601160045260246000fd5b634e487b7160e01b600052603260045260246000fdfea26469706673582212202840c6c40d5abdd1929555043012905598864e1315b061d7b26b37eb41bf183864736f6c63430008060033b10e2d527612073b26eecdfd717e6a320cf44b4afac2b0732d9fcbe2b7fa0cf6",
    "sourcePath": "/Users/wpereyra/Documents/Personal/Projects/the-airline_ethereum/contracts/Airline.sol",
    "compiler": {
        "name": "solc",
        "version": "0.8.6+commit.11564f7e"
    },
    "functionHashes": {
        "buyFlight(uint256)": "0ca97e48",
        "customerFlights(address,uint256)": "81959427",
        "customerTotalFlights(address)": "f269365a",
        "customers(address)": "336989ae",
        "flights(uint256)": "15ccf70f",
        "owner()": "8da5cb5b"
    },
    "gasEstimates": {
        "creation": {
            "codeDepositCost": "335000",
            "executionCost": "infinite",
            "totalCost": "infinite"
        },
        "external": {
            "buyFlight(uint256)": "infinite",
            "customerFlights(address,uint256)": "infinite",
            "customerTotalFlights(address)": "2607",
            "customers(address)": "4680",
            "flights(uint256)": "infinite",
            "owner()": "2403"
        }
    }
}